:1000000004308A005B2C00000A108A100A11820753
:1000100028340C34013406345334EF3B693767100D
:10002000E430F4300000C634EE34733400012010A4
:1000300020102010D23261327910201020100000E0
:10004000201020102010D2326132791020102010A0
:1000500000004937E337ED34EE333A10A5192E1876
:100060006600C430F430A011201025196400D2328B
:10007000E332703AE9376E1DA027CB100001D2326F
:10008000E332703AE9376E1D57294F27C710000039
:100090003B3084008313000803195C280130F8000A
:1000A000F701F70B5128F80B50284A30F700F70BEF
:1000B00057285A28800B4E280800420EF039F700C6
:1000C0000F3008057704880000000814672808101E
:1000D00008000808F700080E0F39F800080083161A
:1000E000081088100811831288100F308316080535
:1000F000F0388800831208150000081400006920F9
:100100007808C20008100000081400006920780870
:10011000C10008100F308316080588008312420EB4
:10012000F700F030F70577084104F8007808C100BF
:10013000C11B75283F1C88103F1888140000081147
:1001400000000810400EC1000F30C1054108C20078
:100150005D2040080F39C100C2005D2008000F304B
:10016000831608058800081088100811831288106B
:10017000081108100F30BB0048200130AD002D08D9
:10018000033C031CCB280330C2005D200530BB00BC
:100190004820AD0ABF280230C2005D20AD012D0805
:1001A000033C031CDC282D080420AE00BF012E08F0
:1001B000C0006F20AD0ACF288A110A12C22C3C0B56
:1001C000E228E5284030BD00E628BD0101303B02B1
:1001D000BD073D088038BE00BF013E08C0006F204B
:1001E00008003A08073A0319FF280B3A03190429B3
:1001F000063A03190C29023A03191229172901306A
:10020000BB00BC00DF201D29BF010130C0006F20F2
:100210000230BB0048201D290130BB000230BC0069
:10022000DF201D29BF011030C0006F201D290130C3
:10023000BF003A08C0006F201D290800831603176D
:100240008C170C140000000083120C087F3903196E
:1002500062290313AD0003170D080313AE00031743
:100260000F080313AF002D08BA00F1202E08031762
:100270008D0003132F0803178F0083168C170C149F
:100280000000000083120C0D0E0D7F390319622946
:100290000313AD0003170D080313AE0003170F0877
:1002A0000313AF002D08BA00F1202E0803178D00AC
:1002B00003132F0803178F008D0A03198F0A0313E6
:1002C0001E290317031308008E30F7002E08F800CC
:1002D0002D08F900FA01F808031D78297908F800BB
:1002E000F9010830F702F808031D7829F701802981
:1002F0000310F81B7F29F90DF80DF7037829F8137F
:100300008A110A12092D831603178C170C1400008A
:1003100000000318B22983120C087F390313AE00C2
:1003200003170D080313AF0003170F080313B000E2
:100330002E08BA00F1202F0803178D000313300890
:1003400003178F0083168C170C1400000000831213
:100350000313AD0BAC29AF2983160317B229D1299A
:100360008316031783120C0D0E0D7F390313AE0095
:1003700003170D080313AF0003170F080313B00092
:100380002E08BA00F1202F0803178D000313300840
:1003900003178F008D0A03198F0A03100313AD0B87
:1003A000832908008318D729423084008313F7017A
:1003B000F801F901FA01C201C301C401C5014108F4
:1003C00040043F043E040319152A2030C6000310E0
:1003D000BA0DBB0DBC0DBD0DC20DC30DC40DC50DB9
:1003E00041084502031DFE2940084402031DFE2961
:1003F0003F084302031DFE293E084202031C0F2A48
:100400003E08C2023F08031C3F0FC3024008031C02
:10041000400FC4024108031C410FC5020314F70D2D
:10042000F80DF90DFA0DC60BE72942088000840A81
:1004300043088000840A44088000840A450880003C
:1004400008000408B2003108B4000319B32A3008C8
:10045000BD002F08BC002E08BB002D08BA00C1014A
:10046000C0012030BF008230BE003A080319A52A1F
:10047000C2003E080319A52AC2070318462A7F3086
:10048000C202031CA52A0319A52A4A2A8130C207E1
:100490000318A52A4208F700F801F901FA013B0800
:1004A000C600C6173C08C5003D08C4001830C2008D
:1004B000C301441C732A4108FA07031C652AF90A80
:1004C000031D652AF80A0319C3174008F907031C1E
:1004D0006C2AF80A0319C3173F08BC00BC173C0874
:1004E000F8070318C317C30DF80CF90CFA0CC60C67
:1004F000C50CC40C0310C20B582A0130F7070318AF
:10050000A52AF81B8A2AC60DFA0DF90DF80DF70376
:100510000319A52AC61F9B2AFA0A031D9B2AF90A5A
:10052000031D9B2AF80A031D9B2AF80CF90CFA0CF0
:10053000F70A0319A52A3B08C3003F08C306C31FD7
:10054000A32AF817A92AF813A92AF701F801F90133
:10055000FA017A08B0007908AF007808AE00770891
:10056000AD00B40B272A3008BD002F08BC002E08B0
:10057000BB002D08BA003A08B63CBA00FA013B08A5
:10058000BE00BB170310BB0CBC0CBD0CFA0CF90C65
:10059000F80CF70CBA0BC22ABE1FD92AF709F809C2
:1005A000F909FA09F70A0319F80A0319F90A0319EC
:1005B000FA0A7A08B0007908AF007808AE00770828
:1005C000AD00B01FF02AB203B216AD09AE09AF09F3
:1005D000B009AD0A0319AE0A0319AF0A0319B00A2C
:1005E0003B30B9009A30B800CA30B700B6010A30C3
:1005F000B40031080319B20A83142D308400831328
:100600003008BD002F08BC002E08BB002D08BA0022
:100610003908C1003808C0003708BF003608BE00DE
:10062000D2217808F708031D282B310A3402031958
:10063000282B320803192A2B0F3934020319222BD5
:1006400003185A2BB21B5A2B321B2A2B2030562B45
:100650002030B205B21E382BB2123108031DB2038E
:100660007708B2002D30BA00F1203208F700B2014D
:1006700031083402031D462B7708B2002E30BA0031
:10068000F1203208F7002030B20500303030B21EC1
:10069000562BB2123108031DB2037708B2002D3079
:1006A000BA00F1203208F700B2013030F7077708BE
:1006B000BA00F12083103908BD003808BC003708A3
:1006C000BB003608BA00C101C001BF010A30BE003C
:1006D000D2217A08B9007908B8007808B7007708FD
:1006E000B600B40BFC2A8A110A12322D3408F80124
:1006F000330203187E2B3308F7008A2BF7010830EA
:10070000B500B30DF70D340877020318F700F80DA4
:10071000B50B812B080020302E1E3030AF002D0885
:10072000F700AD1F9A2BF709F70A7708AD002D30B7
:10073000AF00AE172D08B3006430B40076237708FD
:10074000AD0030307807B0002D08B3000A30B40097
:10075000762330307707B20030307807B1002F08A9
:10076000F700AE1DB52BAE1F2E112E1AC22BAE1FD9
:10077000DD2B2E19DD2B7708B000AE18DD2B7708A6
:10078000B100DD2B30303002031DDD2B7708B000C7
:100790002030AF00AE1DD02B2E11AE14AE1FAE1008
:1007A00030303102031DDD2B7708B1002030B0005E
:1007B000AE1DD02BAE10AE1F2E102E1DE22B2F081B
:1007C000BA00F120AE1CE72B3008BA00F1202E1C35
:1007D000EC2B3108BA00F1203208BA00F1208A115E
:1007E0000A12462D0130BB00BC00DF200C30BA00DD
:1007F000F1200130BB00BC00DF200C3003178D005E
:1008000000308F0003131E21AC010130AB002B0F11
:100810000C2C2C0F0C2C2D2C0130A100AA00AA00AE
:100820002A08323C031C292C210803178D0083164B
:100830008C130C1483120C080313A9008316860171
:100840008312290886000130BB004820A10AAA0AA9
:10085000102CAB0A0319AC0A072C0130BB00BC00FA
:10086000DF200C30BA00F1200130BB00BC00DF20DB
:10087000133003178D0000308F0003131E21023048
:10088000AD00FA30BB004820AD0B412C0130BB005D
:10089000BC00DF200C30BA00F1200130BB00BC00EE
:1008A000DF20173003178D0000308F0003131E2147
:1008B0008A110A12712D840183131F3083051930A8
:1008C00083169900A6309800903083129800A015E6
:1008D00020088316870083122016200883168700BD
:1008E000083093003630831294008316111483125B
:1008F000A101A201A30183161F149F141F159F11AC
:1009000007309C00FF308312A00083161F149F1431
:100910001F159F111F1383121F139F1383169F13FD
:1009200083121F148316091283129412A012200836
:1009300083168700831220162008831687008312EF
:10094000A011200883168700013083129400003024
:10095000831694000108C73908388100831290017A
:100960000030F800920000308316920007309C009F
:10097000050885000330F700F70BBC2C1C08831218
:100980000D13AF280130BB00BC00DF200C30BA00D3
:10099000F1200130BB00BC00DF20203003178D00A8
:1009A00000308F0003131E218316141C9B2D83120D
:1009B00014138C1DD92C13081416A8002108003C10
:1009C0000318992D210803178D0003132808031716
:1009D0008C0083168C130C15831203130B08F7007D
:1009E0008B138316031755308D00AA308D008C149D
:1009F0008C18F82C0C117708831203138B04210830
:100A0000323C031C462D2808A207AE012808AD0081
:100A100064297A08A7007908A6007808A500770855
:100A2000A4000130BB00BC00DF200C30BA00F12074
:100A30000130BB00BC00DF20293003178D000030DF
:100A40008F0003100A300313AD00832102308400AD
:100A50002708B0002608AF002508AE002408AD0026
:100A6000B101212A0130BB000230BC00DF2031304F
:100A700003178D0000308F00031008300313AD0002
:100A800083212108AD001130AE008B2B2108333CAF
:100A9000031D992D2808A30022082302031D722D8F
:100AA0000330AD00FA30BB004820AD0B522D0130B1
:100AB000BB00BC00DF200C30BA00F1200130BB00CD
:100AC000BC00DF20373003178D0000308F00031388
:100AD0001E210330AD00FA30BB004820AD0B6B2D5A
:100AE000F22B962D220823020319962D0330AD0018
:100AF000FA30BB004820AD0B782D0130BB00BC00A4
:100B0000DF200C30BA00F1200130BB00BC00DF2038
:100B10003F3003178D0000308F0003131E21033078
:100B2000AD00FA30BB004820AD0B912DA201FF3083
:0A0B3000A100A10A8316D52C630072
:02400E00313F40
:00000001FF
;PIC16F877A
;CRC=547B  CREATED="14-nov-11 23:20"
