:1000000000308A0038280000FF00030E8301A100A1
:100010007F08A0000A08A7008A01A00E0408A20019
:100020007708A3007808A4007908A5007A08A6003C
:10003000831383128C308400801D20288C19312872
:10004000220884002308F7002408F8002508F90096
:100050002608FA0027088A00210E8300FF0E7F0E73
:10006000090083160611831206158C118A112028A7
:10007000840183131F308305831606168614083007
:10008000930036308312940083161F149F141F159B
:100090009F111F149F141F159F111F1383121F13ED
:1000A0009F1383169F1383121F1494128316061135
:1000B00086140612013083129400003083169400D7
:1000C0000108C73908388100831290010030F80018
:1000D0009200003083169200061583129701831652
:1000E0008C15C03083128B04003083168600860185
:0800F000831286017A286300E7
:02400E00223F4F
:00000001FF
;PIC16F819
;CRC=9E6F  CREATED="13-Nov-11 15:21"
