:04000000DBEF00F042
:08000800046ED8CF05F0E0CF33
:1000100006F00001E9CF0CF0EACF07F0E1CF08F0DD
:10002000E2CF09F0D9CF0AF0DACF0BF0F3CF12F01C
:10003000F4CF13F0FACF14F0F5CF15F0F6CF16F099
:10004000F7CF17F000C00EF001C00FF002C010F0A3
:1000500003C011F0F2A830EF00F0F2B27AEF00F036
:100060000EC000F00FC001F010C002F011C003F08C
:100070000CC0E9FF07C0EAFF078E08C0E1FF09C016
:10008000E2FF0AC0D9FF0BC0DAFF12C0F3FF13C0B2
:10009000F4FF14C0FAFF15C0F5FF16C0F6FF17C035
:1000A000F7FF045006C0E0FF05C0D8FF100081B084
:1000B000FED7080E006E1B6A008E0ED0009E0CD07C
:1000C000D89081B0D8801B32008C06D0009C002EC6
:1000D000F7D71BC001F00CD0A70E00BE2D0E016E8D
:1000E000012EFED7000000BEE9D700BCEFD7E8D74D
:1000F00080EF00F0F298F29CF29EF2BEFDD7D7D7C7
:1001000001C019F0F29230EF00F0C150C00B0F099E
:10011000C16EC090C092C094C09EC2809698C69A8C
:10012000010EC66E000EC76ED190800ED56ECD6AE0
:10013000000ECA6E000ECB6E8B940C0EBD6EB76AAD
:10014000B66A8B92BA6E070EB46E9250926E100E13
:10015000006E002EFED70000B450A19CF288C00EA5
:10016000F2129D8AF19CBE6ABB6A010E936E800EEC
:10017000946EF1EF00F08A92080E016E00D000003C
:10018000018E0ED0019E1A32D8B08A82D8A08A92EF
:10019000018C06D0019C012EF6D700D000008A8287
:1001A000A70EE96EE92EFED700D001BEEBD701BC49
:1001B000F1D7F4EF00F0F86AD09E078EEA6AE96A98
:1001C000B886080EAF6E020EB06EA60EAC6E900E24
:1001D000AB6E8A82C150C00B0F09C16E070EB46EA0
:0E01E00094D7630E1A6EC7D7F298FFD70300AC
:020000040030CA
:0E00000024CC380E0087A1000FC00FE00F4087
:00000001FF
;PIC18F4550
;CRC=14B0  CREATED="21-nov-11 17:15"
