:0400000072EF00F0AB
:08000800046ED8CF05F0E0CF33
:1000100006F00001E9CF0CF0EACF07F0E1CF08F0DD
:10002000E2CF09F0D9CF0AF0DACF0BF0F3CF12F01C
:10003000F4CF13F0FACF14F0F5CF15F0F6CF16F099
:10004000F7CF17F000C00EF001C00FF002C010F0A3
:1000500003C011F09DAA30EF00F09EBA57EF00F0F8
:100060000EC000F00FC001F010C002F011C003F08C
:100070000CC0E9FF07C0EAFF078E08C0E1FF09C016
:10008000E2FF0AC0D9FF0BC0DAFF12C0F3FF13C0B2
:10009000F4FF14C0FAFF15C0F5FF16C0F6FF17C035
:1000A000F7FF045006C0E0FF05C0D8FF10009EAA6D
:1000B000FED7AECF19F09E9A30EF00F0EA6A1A0E22
:1000C000E96EEF500EE0030E016E006A002EFED7BF
:1000D000012EFBD73C0E006E002EFED700D0EF2E77
:1000E000F2D71200F86AD09E078EEA6AE96A400EDB
:1000F000AF6EA60EAC6E900EAB6EC180C182C18495
:10010000C196C180C182C184C196C19CC29CC29E5D
:10011000C19EC2809698C69A949A94889496010E2D
:10012000C66E000EC76ED190800ED56ECD6A000EE1
:10013000CA6E000ECB6EB16A9484BD6A9D8AC00EF1
:10014000F2121950610804E192908980929289928A
:100150001950620804E19292898292908990195014
:10016000630804E1929089909292899294908B8096
:10017000640E1A6EA3DF94908B90640E1A6E9EDF4D
:04018000E0D70300C1
:020000040030CA
:0E0000000022080E000181000FC00FE00F402B
:00000001FF
;PIC18F452
;CRC=7429  CREATED="26-nov-11 21:28"
