:04000000D9EF00F044
:08000800046ED8CF05F0E0CF33
:1000100006F00001E9CF0CF0EACF07F0E1CF08F0DD
:10002000E2CF09F0D9CF0AF0DACF0BF0F3CF12F01C
:10003000F4CF13F0FACF14F0F5CF15F0F6CF16F099
:10004000F7CF17F000C00EF001C00FF002C010F0A3
:1000500003C011F0F0A830EF00F0F0B270EF00F044
:100060009DAA36EF00F09EBA76EF00F00EC000F0C9
:100070000FC001F010C002F011C003F00CC0E9FF86
:1000800007C0EAFF078E08C0E1FF09C0E2FF0AC00F
:10009000D9FF0BC0DAFF12C0F3FF13C0F4FF14C086
:1000A000FAFF15C0F5FF16C0F6FF17C0F7FF0450A2
:1000B00006C0E0FF05C0D8FF1000EA6A1C0EE96E1A
:1000C000EF500DE0060E016E006A002EFED7012EE5
:1000D000FBD77B0E006E002EFED7EF2EF3D712005B
:1000E000640E1C6EEADFF09236EF00F09EAAFED797
:1000F000AECF1AF09E9A36EF00F09698C69A010E8F
:10010000C66E000EC76ED190800ED56ECD6A000E01
:100110000509CA6E580ECB6EB16A8B940C0EBD6E7B
:10012000B76AB66A8B92BA6EBE6ABB6A070EB46EC5
:100130009250926E100E006E002EFED70000B4504A
:10014000A19C9D8AF088C00EF212FF0E926E3F0EA7
:10015000936EBE0E946E000E956EFF0E966EEEEFD1
:1001600000F08A8C8A8E8C808C848C928C9606EF20
:1001700001F08A8C8A8E8C828C868C908C941EEFF7
:1001800001F08A9C8A9E8C928C968C908C9436EF8F
:1001900001F08A8C8A9E8C808C948C928C964EEF87
:1001A00001F08A9C8A8E8C908C848C928C9666EF5F
:1001B00001F0F86AD09E078EEA6AE96AB886080EEE
:1001C000AF6E020EB06EA60EAC6E900EAB6EC1504E
:1001D000C00B0F09C16E070EB46E8FD78B80196AE2
:1001E000F2BE198EF29E640E1C6E67DF19BEF28E8F
:1001F0008B90196AF2BE198EF29E640E1C6E5DDF42
:1002000019BEF28E1A50610815E1ABD78B80196ABE
:10021000F2BE198EF29E640E1C6E4FDF19BEF28E76
:100220008B90196AF2BE198EF29E640E1C6E45DF29
:1002300019BEF28E1A50620815E19BD78B80196A9D
:10024000F2BE198EF29E640E1C6E37DF19BEF28E5E
:100250008B90196AF2BE198EF29E640E1C6E2DDF11
:1002600019BEF28E1A50630815E18BD78B80196A7C
:10027000F2BE198EF29E640E1C6E1FDF19BEF28E46
:100280008B90196AF2BE198EF29E640E1C6E15DFF9
:1002900019BEF28E1A50640815E17BD78B80196A5B
:1002A000F2BE198EF29E640E1C6E07DF19BEF28E2E
:1002B0008B90196AF2BE198EF29E640E1C6EFDDEE2
:1002C00019BEF28E1A50650815E16BD78B80196A3A
:1002D000F2BE198EF29E640E1C6EEFDE19BEF28E17
:1002E0008B90196AF2BE198EF29E640E1C6EE5DECA
:0802F00019BEF28E87D703004E
:020000040030CA
:0E00000020CC380E0087A1000FC00FE00F408B
:00000001FF
;PIC18F4550
;CRC=C99D  CREATED="09-dic-11 01:35"
