:04000000EEEF00F02F
:08000800046ED8CF05F0E0CF33
:1000100006F00001E9CF0CF0EACF07F0E1CF08F0DD
:10002000E2CF09F0D9CF0AF0DACF0BF0F3CF12F01C
:10003000F4CF13F0FACF14F0F5CF15F0F6CF16F099
:10004000F7CF17F000C00EF001C00FF002C010F0A3
:1000500003C011F0F2A830EF00F0F2B25DEF00F053
:100060009DAA36EF00F09EBA61EF00F00EC000F0DE
:100070000FC001F010C002F011C003F00CC0E9FF86
:1000800007C0EAFF078E08C0E1FF09C0E2FF0AC00F
:10009000D9FF0BC0DAFF12C0F3FF13C0F4FF14C086
:1000A000FAFF15C0F5FF16C0F6FF17C0F7FF0450A2
:1000B00006C0E0FF05C0D8FF10001D2AF29236EFFF
:1000C00000F01E6A1E5206E004009EAAFDD7AECFC5
:1000D0001BF005D004009EAAFDD7AECF1CF09E9A5F
:1000E00036EF00F04D616E75616C00004175746F04
:1000F0006D617469636F000042616420636D640028
:10010000C150C00B0F09C16EC090C092C094C09E78
:10011000C2809698C69A010EC66E000EC76ED19028
:10012000800ED56ECD6A000E0409CA6E4A0ECB6EE3
:100130008B940C0EBD6EB76AB66A8B92BA6EBE6AAD
:10014000BB6A070EB46E9250926E020E006E002EC5
:10015000FED7B450A19CF90E926EFF0E936E000E66
:10016000946E956E966E03EF01F0EA6A200EE96ECA
:10017000EF5007E0F80E006E002EFED700D0EF2EF5
:10018000F9D7000C82801FC020F0EFDF82901FC0E3
:1001900020F0EBDF82801FC020F0E7DF82901FC0DD
:1001A00020F0E3DF06EF01F00900F5520EE0F6CF94
:1001B0001FF0F7CF20F0F55004009EA8FDD7AD6EDC
:1001C0001FC0F6FF20C0F7FFEFD7000C010E1E6E18
:1001D00021EF01F0010E1E6E21EF01F0F86AD09EB2
:1001E000078EEA6AE96AB886260EAF6E000EB06E18
:1001F000A60EAC6E900EAB6EC150C00B0F09C16E57
:10020000070EB46E7DD7640E1F6EBCD71B521AE06A
:100210001B5003E0010A08E00ED0E40EF66E000E5B
:10022000F76EC2DFD3D70DD0EC0EF66E000EF76E70
:10023000BBDFD0D706D0F80EF66E000EF76EB4DF37
:0802400000D000D0E3D7030059
:020000040030CA
:0E0000003ACC380E0087A1000FC00FE00F4071
:00000001FF
;PIC18F4550
;CRC=8AA1  CREATED="07-nov-11 23:17"
