:100000006AEF00F0C150C00B0F09C16EC090C092E2
:10001000C094C09EC2809698C69A010EC66E000E0D
:10002000C76ED190800ED56ECD6A000E0609CA6EDD
:100030004D0ECB6E8B940C0EBD6EB76AB66A8B926A
:10004000BA6EBE6ABB6A070EB46E9250926E020E12
:10005000006E002EFED7B450A19CFF0E926E936EE0
:10006000000E946EFF0E966E958095827EEF00F0E6
:10007000080E016E00008C92959200000A368C905A
:10008000D8B09580D8A09590958283A2FED7012EF6
:10009000F1D700008C92959200009580000000003E
:1000A000958283A2FED7016A000083B001808C9202
:1000B00095928C909590000CEA6A0B0EE96EEF50C9
:1000C00007E0F80E006E002EFED700D0EF2EF9D715
:1000D000A1EF00F0F86AD09EEA6AE96AB886260EB7
:1000E000AF6E000EB06EA60EAC6E900EAB6EC15031
:1000F000C00B0F09C16E070EB46E84D70850630899
:1001000024E38C9495800000958200008C9095905B
:1001100000008C929592080E0A6EAADF08C00AF0C1
:10012000A7DF95900000958283A2FED7000000D043
:100130000000958000008C84040E0A6EFA0E0B6E8F
:0C014000BBD70A2EFBD7082AD9D7030032
:020000040030CA
:0E0000003CCC380E0087A1000FC00FE00F406F
:00000001FF
;PIC18F4550
;CRC=7DD2  CREATED="13-Nov-11 15:24"
