:1000000038EF00F0C150C00B0D09C16EC090C09216
:10001000C094C08EC2809698C69A949E9380939204
:10002000010EC66E000EC76ED190800ED56ECD6AE1
:10003000000E0609CA6E4D0ECB6E94948B94969C5E
:100040000C0EBD6EB76AB66A94928B92BA6E070EAA
:10005000B46E9250926E030E006E002EFED700D04A
:10006000B450A19CFF0E926E000E946E43EF00F010
:10007000F86AD09EEA6AE96AC150C00B0F09C16EE6
:10008000070EB46EBFD7000E016EC250C30B011035
:10009000C26EC282C2B2FED7C3CF04F0C4CF05F095
:1000A00000D000D000D00530096E0430086E09324F
:1000B00008323F0E091609C002F008C001F00232F2
:1000C000013202320132023201C0BEFF023202307E
:1000D000300B006EBD50CF0B0010BD6E040E016ED4
:1000E000C250C30B0110C26EC282C2B2FED7C3CFD0
:1000F00006F0C4CF07F000D000D000D007300B6E60
:1001000006300A6E0B320A323F0E0B160BC002F09D
:100110000AC001F00232013202320132023201C061
:10012000BBFF02320230300B006EBA50CF0B001012
:06013000BA6EA9D703001E
:020000040030CA
:0E0000003CCC380E0087A1000FC00FE00F406F
:00000001FF
;PIC18F4550
;CRC=44CF  CREATED="13-nov-11 21:26"
