:1000000000308A00232800000830A20083168515DE
:100010000515831285190A28851D0C280519031456
:10002000051D0310F80DA20B0A2885191528831643
:10003000051183120511851D1B28000083168511EB
:10004000831285114828840183131F3083050730EC
:100050009F0083160108C739083881008312900178
:100060000030F8009200003083169200861583124B
:10007000970107309F008316050885000330F700BD
:10008000F70B402883121F080C130130F7000428D7
:100090007808A00083168601831220088600452870
:0200A0006300FB
:02400E00223F4F
:00000001FF
;PIC16F628A
;CRC=4E72  CREATED="13-nov-11 10:27"
