:1000000000308A008D280000FF00030E8301A1004C
:100010007F08A0000A08A7008A01A00E0408A20019
:100020007708A3007808A4007908A5007A08A6003C
:10003000831383120B1E1E288B1864288C308400B7
:10004000801E24288C1A4A28220884002308F700DE
:100050002408F8002508F9002608FA0027088A0075
:10006000210E8300FF0E7F0E09002D3084008313C4
:100070000008031949280130F800F701F70B3E2862
:10008000F80B3D284A30F700F70B44284728800B2F
:100090003B28080083168C1283120B138B138B1BC7
:1000A0004E280B126430AD0035208C1E55281A08DE
:1000B000AA002A08633C031D612829080C1E5E283B
:1000C00099008C128A11242883168C1283128B10AB
:1000D0008A11242883160108C73908388100831241
:1000E00090010030F80092000030831692008615CF
:1000F0008312970107309F0083160508850003309F
:10010000F700F70B812883121F080C1383168C1637
:10011000C03083128B040B169C28840183131F307C
:100120008305193083169900A63098009030831209
:10013000980007309F006A284030A90083168C166B
:10014000C03083128B04831605108312051404300B
:10015000AB00A8018B1BA8178B13FA30AD0035201C
:10016000A81B8B17AB0BA92883160510831205104B
:040170009E28630062
:02400E00223F4F
:00000001FF
;PIC16F628A
;CRC=B42D  CREATED="02-dic-11 21:17"
